:020000040800F2
:10000000B80E002089020008AF250008611C000816
:10001000AD25000875080008C52F00080000000085
:10002000000000000000000000000000232800087D
:10003000E508000800000000D12500082528000878
:10004000A3020008A3020008A3020008A3020008FC
:10005000A3020008A3020008A3020008A3020008EC
:10006000A3020008A3020008A3020008A3020008DC
:10007000A3020008A3020008A3020008A3020008CC
:10008000A3020008A3020008A3020008A3020008BC
:10009000A3020008A3020008A3020008A3020008AC
:1000A000A3020008A3020008A3020008A30200089C
:1000B000A30200088D29000899290008A30200085E
:1000C000A3020008A3020008A3020008A30200087C
:1000D000A3020008592F0008A3020008A302000889
:1000E000FD080008A3020008A3020008A3020008FC
:1000F000A3020008A3020008A3020008A30200084C
:10010000A3020008A3020008A3020008A30200083B
:10011000A3020008A3020008A3020008A30200082B
:10012000A3020008A3020008A3020008A30200081B
:10013000A3020008A3020008A3020008A30200080B
:10014000A3020008A3020008A3020008A3020008FB
:10015000A3020008A3020008A3020008A3020008EB
:10016000A3020008A3020008A3020008A3020008DB
:10017000A3020008A3020008000000000000000025
:10018000A3020008A302000800F002F800F06DF8D6
:100190000AA090E8000C82448344AAF10107DA45E2
:1001A00001D100F062F8AFF2090EBAE80F0013F0C7
:1001B000010F18BFFB1A43F00103184794270100F1
:1001C000B42701000A444FF0000C10F8013B13F073
:1001D000070408BF10F8014B1D1108BF10F8015BA0
:1001E000641E05D010F8016B641E01F8016BF9D193
:1001F00013F0080F1EBF10F8014BAD1C0C1B09D1EA
:100200006D1E58BF01F801CBFAD505E014F8016B5B
:1002100001F8016B6D1EF9D59142D6D370470000ED
:100220000023002400250026103A28BF78C1FBD8FF
:10023000520728BF30C148BF0B607047642900F0E7
:100240001781752900F01481782900F04D81632908
:1002500000F0A482732900F0A982002070471FB526
:1002600003F040FF1FBD10B510BD00F0D1FA1146DC
:10027000FFF7F5FF02F020FF00F0EFFA03B4FFF7FD
:10028000F2FF03BC02F0D9FE094880470948004745
:10029000FEE7FEE7FEE7FEE7FEE7FEE7FEE7FEE736
:1002A000FEE7FEE704480549054A064B7047000093
:1002B0004929000889010008B8080020B80E00206C
:1002C000B80A0020B80A0020704753EA020C00F078
:1002D00069802DE9F04B4FF00006002B1FBFB3FAE9
:1002E00083F503FA05F424FA05F65E4012BF1643BF
:1002F000B2FA82F502FA05F4C5F120051EBF22FA12
:1003000005FC44EA0C04203556EA044C4FEA144438
:1003100018BF641C4FF000084FF00009904271EBC9
:10032000030C39D3002919BFB1FA81F701FA07F696
:10033000B0FA80F700FA07F6C7F120071EBF20FACF
:1003400007FC46EA0C062037B6FBF4FCA7EB0507D2
:10035000103F07F01F0BCBF120060CFA0BFB2CFA19
:1003600006F644BFB3460026202FA4BF5E464FF0DA
:10037000000B5BEA060C08BF4FF0010B19EB0B09F1
:10038000ABFB027C48EB0608C01B06FB02CC0BFB58
:1003900003CC71EB0C01C1E70B46024641464846CF
:1003A000BDE8F08B13B54FF000004FF00001AFF344
:1003B0000080BDE81C4070470FB4044910B503AA83
:1003C000029800F0F7F910BC5DF814FB1000002053
:1003D00070B5044685690068C10601D5302600E085
:1003E0002026C00707D070BDD4E9012130469047D0
:1003F000206A401C20626D1EF6D570BD70B50446A3
:1004000085690078C00707D170BDD4E9012120209B
:100410009047206A401C20626D1EF6D570BD70B5F5
:100420000C460546012A05D02878800600D5EA69E1
:10043000002302E0012305E05B1C934202D2E05C52
:100440000028F9D1A869E618C01AA861286A1844DA
:1004500028622846FFF7BCFF04E0D5E9012114F823
:10046000010B9047B442F8D32846FFF7C7FF70BD91
:100470002DE9F0410646002410687529314616A57D
:1004800010D0AFF30080002802DA404213A507E045
:1004900031688A0701D512A502E0490704D511A5E4
:1004A000012401E0AFF3008000210A2206F12407B5
:1004B00009E0B0FBF2FCB0FBF2F302FB1C003030B1
:1004C00078541846491C0028F3D123462A46304662
:1004D000BDE8F04100F0FFB8000000002D00000072
:1004E0002B0000002000000070B504460D46214698
:1004F0001068AFF300802188090502D50F4A7A44BD
:1005000002E00E4A7A440E32002104F1240305E091
:1005100000F00F060009965D5E54491C0028F7D1D3
:1005200020780023000704D5702D02D009B10223E2
:1005300011322046BDE8704000F0CDB8AA2101007C
:100540002DE9F05F894604464FF0000ADFF874B1E8
:10055000FB44C0F820A02046E1688847002874D0FA
:10056000252806D0D4E901219047206A401C20624A
:10057000F1E700265F462046E168884720280546C7
:1005800007DB312D05D2781910F8200C08B106438D
:10059000F1E7B00701D526F00406C4F81CA0002737
:1005A000C4F818A02A2D09D0284602F03FFD38B320
:1005B00004EB8708303DC8F8185019E059F8041BBF
:1005C000204604EB87029161E1688847012F0546C8
:1005D00018D1E069002820DA26F020061DE0D8F8BE
:1005E000180000EB800005EB40003038C8F8180018
:1005F0002046E1688847054602F018FD0028EED144
:10060000012F0AD02E2D08D12046E16888477F1C93
:100610000546022F46F02006C4DBA069002803DA55
:10062000404246F00106A061F00701D026F0100616
:100630006C2D0BD0682D09D04C2D39D06A2D35D0BA
:10064000742D35D07A2D33D016E038E0E1682F468E
:1006500020468847B842054609D16C2F26D04FF472
:100660008060E168064320468847054604E06C2F19
:100670001AD04FF4807006430DB3A5F1410019283C
:1006800002D8203546F400664A46294620462660B0
:100690004E46FFF7D3FD80B101280BD0F61D26F0A2
:1006A000070000F1080956E74020E4E78020D8E77A
:1006B0000020D6E706F104094DE7284652E7206AF4
:1006C00000F002B88021010030BCBDE8C09F704737
:1006D0007047704770472DE9F0470D46994692469E
:1006E000044600F124080168880604D5E06921F079
:1006F0001001216000E00120A84201DD471B00E05D
:100700000027A1697A1902EB0900081AA061207874
:10071000C00602D42046FFF75BFE002608E0D4E9BD
:1007200001211AF806009047206A401C761C2062BE
:100730004E45F4DB2078C0060AD52046FFF748FE78
:1007400006E0D4E9012130209047206A401C206255
:10075000381EA7F10107F4DC07E0D4E9012118F8FD
:1007600005009047206A401C2062281EA5F1010563
:10077000F3DC2046FFF742FE2078000602D5022077
:10078000BDE8F0870120FBE710B5436913B1AFF373
:10079000008001E0FFF743FE012010BD127800F158
:1007A00024010A7000224A700122EDE711684FF01F
:1007B000FF32E9E7074B70B50D467B4400F011F8B6
:1007C0000446284600F020F810B14FF0FF3070BD0D
:1007D000204670BDE328000001694A1C02610878C8
:1007E000704700B58FB0CDE9013100210591054971
:1007F0007944CDE9031011466846FFF7A1FE0FB01A
:1008000000BD0000E5FFFFFF007B00F080007047A7
:10081000754600F02BF8AE4605006946534620F0B9
:100820000700854618B020B5FFF73CFDBDE8204025
:100830004FF000064FF000074FF000084FF0000B9C
:1008400021F00701AC46ACE8C009ACE8C009ACE84F
:10085000C009ACE8C0098D46704710B50446AFF337
:1008600000802046BDE81040FFF708BD00487047F3
:1008700058080020FEE700002DE9F0470025174F3B
:100880004FF400762C462A463146384600F06CF983
:10089000DFF84C904FF400584146484600F05BF9B1
:1008A00018B16D1CEDB200240BE0641CE4B2032C03
:1008B00007D901223146384600F056F90020BDE83C
:1008C000F0871E2002F0C4FB642DE5D300223146E0
:1008D000384600F049F90120F1E700000010004817
:1008E000000800487047000008B5034A00925223F0
:1008F000F02201F0A3FD08BDEC8C00084FF400507D
:1009000000F034B810B590F825100024022903D067
:100910000421C16301241AE001680A6822F00E0272
:100920000A6001680A6822F001020A6090F8441027
:10093000012301F01C0203FA02F1026C516080F8FD
:100940002530002180F82410816B01B188472046B2
:1009500010BD10B5B0F5005F07D1FFF78DFF00287F
:1009600003D0BDE8104001F05FBF10BD044910B5D1
:100970000A68024202D00860FFF7EBFF10BD0000DA
:10098000140401402DE9F84FDFF8A091002209F18D
:10099000040A0AF1040B4FF00F080BF1040EBEE03D
:1009A00001249440234075D04D68022D01D0122DB2
:1009B00011D1D50800EB85073E6A5507ED0E08FA00
:1009C00005FC26EA0C06D1F810C00CFA05FC4CEA2E
:1009D000060CC7F820C007685500032691F804C02C
:1009E000AE400CF0030CB7430CFA05FC4CEA070CC4
:1009F000C0F800C04F68012F05D0022F03D0112F7F
:100A000001D0122F15D18768D1F80CC0B7430CFA6A
:100A100005FC4CEA070CC0F808C0476891F804C010
:100A2000A743CCF3001C0CFA02FC4CEA070CC0F8FC
:100A300004C0D1F804C06FEA0C07BF0706D1C76A2B
:100A4000A743CCF3C00494403C43C462C468B4439D
:100A50008E68AE402643C6604C68E4005ED5344CD8
:100A6000256E45F001052566246E22F0030504F08D
:100A7000010400942F4C2E19B7689407250F08FA2B
:100A800005F4A743B0F1904F05D02B4CA04204D100
:100A900001241CE042E0002419E0284CA04201D1CE
:100AA000022414E0264CA04201D103240FE0254C7F
:100AB000A04201D104240AE0234CA04201D1052424
:100AC00005E0224CA04201D1062400E00724AC40FE
:100AD0003C43B460D9F800404D464E689C43F60351
:100AE00000D51C432C60DAF8004055464E689C4304
:100AF000B60300D51C432C60DBF800405D464E6811
:100B00009C43F60200D51C432C60DEF8004075467D
:100B10004E689C43B60200D51C432C60521C0B68E7
:100B200033FA02F47FF43CAF00F012B80004014045
:100B30000010024000000140000400480008004886
:100B4000000C00480010004800140048001800483D
:100B500018BCBDE8E08F0069084000D00120704754
:100B600042694A40426170470AB1816170478162BF
:100B70007047000001480068704700000400002032
:100B800002480168491C0160704700000400002011
:100B900010B50024052000F04FF8002000F008F800
:100BA00008B1012401E000F01BF8204610BD000050
:100BB00070B5054609484FF47A7100240068B0FB0F
:100BC000F1F000F089FD08B1012404E0002229467B
:100BD000501E00F011F8204670BD000000000020FB
:100BE000704700F01F02012191404009800000F190
:100BF000E020C0F800117047F0B40E4B1B68C3F33F
:100C00000223C3F10704042C00D904241D1D072D61
:100C100001D2002300E0DB1E012606FA04F56D1E5A
:100C20000D409D409E40761E164045EA0601F0BCF0
:100C300001F0BEBC0CED00E0064A00F007011068B0
:100C40004FF6FF03184040EA0120034908431060B3
:100C5000704700000CED00E00000FA051649B0F501
:100C6000007F0868C0F3412009D0022805D0086839
:100C700020F4C06040F480600860002070470128C4
:100C8000FBD0086820F4C06040F4007008600B4896
:100C90003222006850430A4AB0FBF2F0401C00E0E8
:100CA000401E4A69520501D50028F9D1486940051E
:100CB000E3D50320704700000070004000000020D2
:100CC00040420F00034610B50020254A082B45D2AC
:100CD000DFE803F0040F181F262D343B536A21F47C
:100CE000204423435362136A21F480418B431362EF
:100CF00010BDD36A21F010042343D362936A8B435F
:100D0000936210BD536B0B435363136B8B4313639D
:100D100010BDD36B0B43D363936B8B43936310BDB5
:100D2000536C0B435364136C8B43136410BDD36C2F
:100D30000B43D364936C8B43936410BD536D0B438F
:100D40005365136D8B43136510BDD36D01F0030123
:100D50000B43D365936D8B43936510BD012010BD8C
:100D6000007000400248816841F4806181607047F2
:100D7000007000400248006800F4C0607047000046
:100D8000007000400248016841F4807101607047C2
:100D900000700040054AD36800F01F018B4343EA0E
:100DA0005010D06090680843906070470070004019
:100DB0000648016821F00701C91C01600448016868
:100DC00041F00401016030BF704700000070004036
:100DD00010ED00E02DE9F0470D4604005ED0DFF88D
:100DE0000881D8F8000000F00700A8420CD2D8F81B
:100DF000001021F007012943C8F80010D8F80000BE
:100E000000F00700A84249D12078384EC0072BD007
:100E10006068032811D0022812D0316898B14905C2
:100E200000293BDAB16821F003010143B160FFF70B
:100E3000A1FE074641F288390FE031688901EFE7EA
:100E400031688903ECE78907EAE7FFF793FEC11BE6
:100E5000494502D90320BDE8F087B068616800F019
:100E60000C00B0EB810FF0D12078800705D5B06879
:100E7000A16820F0F0000843B060D8F800104046A8
:100E800001F00701A9420BD9016821F007012943AC
:100E90000160006800F00700A84201D00120DAE7F5
:100EA0002078400705D5B068E16820F4E060084389
:100EB000B0602078000706D5B068216920F4605042
:100EC00040EAC100B06000F03BF8B168084AC1F3E5
:100ED0000311515C01F01F01C84006490860BDE8DC
:100EE000F0470020FFF764BE0020024000100240DF
:100EF000F0400008000000200548064900688968A5
:100F0000054AC1F30221515C01F01F01C84070473E
:100F1000000000200010024030410008054806494A
:100F200000688968054AC1F3C221515C01F01F01C4
:100F3000C840704700000020001002403041000807
:100F400070B5264B002210469968DC6811F00C0140
:100F500004F00306224C4FEA640508D00C2904D0A3
:100F6000042925D0082925D010E0012E10D11A68B7
:100F7000120704D4D3F89420C2F3032202E01A68C3
:100F8000C2F30312174E56F8222079B10C290ED164
:100F9000D86800F00301D868C0F30210401C022991
:100FA0000AD003290BD0B2FBF0F00AE0104670BD66
:100FB000204670BD284670BDB4FBF0F001E0B5FBE3
:100FC000F0F0D968C1F306214843D968C1F3416103
:100FD000491C4900B0FBF1F070BD00000010024058
:100FE0000024F400004100082DE9F84304007CD0FF
:100FF000FA4DA86800F00C06E86800F003072078B6
:10100000C00662D576B10C2E01D1012F0AD0A0699D
:101010000028286878D040F001002860FFF7AAFD7A
:10102000804659E02868800702D5A0690028DED0F4
:10103000216A2868000703D5286800F0F00004E062
:10104000D5F89400F02202EA1010814216D9084621
:1010500001F0C0FA002848D1286840F00800286054
:101060002868216A20F0F000084328606868E16978
:1010700020F47F4040EA0120686015E0286840F0D5
:10108000080028602868216A20F0F00008432860E2
:101090006868E16920F47F4040EA01206860206AC6
:1010A00001F098FA0028D6D1FFF74AFFA968CC4A88
:1010B000C1F30311515C01F01F01C840C949086028
:1010C0000020FFF775FD00287ED12DE0FFF752FDCF
:1010D000A0EB0800022878D828688007F6D5286891
:1010E00040F008002860286801E0B8E00CE0216AC0
:1010F00020F0F000084328606868E16920F47F4030
:1011000040EA012068600FE020F001002860FFF74E
:1011100031FD804605E0FFF72DFDA0EB0800022819
:10112000D9D828688007F6D42078C00740D0082E88
:1011300018D00C2E01D1032F14D06068B0F5803F79
:1011400017D0B0F5A02F286817D020F48030286081
:10115000286820F4802028606068E0B1FFF70AFD6D
:10116000804614E02868800322D56068002876D085
:101170001EE0286840F48030EDE740F480202860CD
:10118000F7E7FFF7F7FCA0EB08006428A3D828686E
:101190008003F6D50CE0FFF7EDFC804605E0FFF795
:1011A000E9FCA0EB0800642895D828688003F6D4F1
:1011B0002078800739D5042E11D00C2E01D1022FB2
:1011C0000DD0E068002801E02DE19BE028681DD0EB
:1011D00040F480702860FFF7CDFC07460BE02868DC
:1011E00040050BD5E0680028C1D007E0FFF7C2FC3E
:1011F000C01B022894D828684005F7D56868217C70
:1012000020F0F85040EA016068600EE020F4807041
:101210002860FFF7AFFC074604E0FFF7ABFCC01BFC
:1012200002286FD828684005F7D42078000728D511
:1012300060690028D5F8940012D040F00100C5F88C
:101240009400FFF797FC074604E0FFF793FCC01BF0
:10125000022857D8D5F894008007F6D511E0E9E0C8
:1012600020F00100C5F89400FFF784FC074604E075
:10127000FFF780FCC01B022844D8D5F894008007F3
:10128000F6D42078400766D5A86D4FF00008C0005E
:1012900009D4A86D40F08050A865A86D4FF00108F2
:1012A00000F08050009050480168C90511D40168D1
:1012B000814641F480710160FFF75CFC074604E061
:1012C000FFF758FCC01B02281CD8D9F80000C00545
:1012D000F6D5A068012816D00528D5F8900017D0BB
:1012E00020F00100C5F89000D5F8900020F004002F
:1012F000C5F89000A06841F28839C0B1FFF73AFC08
:1013000007460FE069E0D5F8900040F00100EFE7F4
:1013100040F00400C5F89000F5E7FFF72BFCC11B77
:1013200049457FD8D5F890008007F6D50CE0FFF747
:1013300021FC074604E0FFF71DFCC11B494571D89D
:10134000D5F890008007F6D4B8F1000F03D0A86D4F
:1013500020F08050A865A06AF0B30C2E6AD0022855
:10136000286820F08070286004D0286810F0205F82
:1013700047D04AE0FFF7FEFB064604E0FFF7FAFB22
:10138000801B02284ED828688001F7D4206BE16AC0
:10139000000110380843616BA26B0902120941EA8F
:1013A00042410843A18F114A490802EB41510843C9
:1013B00094F840104908120102EB41610843E860CB
:1013C000286840F080702860E86840F08070E8602D
:1013D000FFF7D0FB044610E02AE023E000100240B3
:1013E000F040000800000020007000400000E0FF16
:1013F000FFF7C0FB001B022814D828688001F7D52E
:1014000016E0E86820F00300E860E8680A49084050
:10141000E860FFF7AFFB044607E0FFF7ABFB001BFC
:10142000022802D90320BDE8F88328688001F4D49B
:101430000020F8E70120F6E7FFFFEEFE2DE9F0417E
:10144000040005D00025A56294F85D0018B107E0FE
:101450000120BDE8F08184F85C50204600F044F89B
:10146000022684F85D602068016821F04001016077
:10147000E0684FF4E062904201D9002101E04FF4AE
:101480008051B0F5706F02D0904200D0A562276BFA
:10149000012327B9904201D9266300E02363D4E9F0
:1014A00001021043D4E9042632431043228B02F494
:1014B00000721043E2691043226A1043A26A10438B
:1014C00022681060626B606AA66910430427E268B4
:1014D00007EA1646324310430843216848602566F0
:1014E00084F85D300020B4E7114800B5C16C87B0C6
:1014F00041F00201C164C16C01F002010591816DEE
:1015000041F400418165806D694600F4004005901A
:1015100028200090022001900120029003200390D7
:10152000062004900348FFF72DFA07B000BD000025
:1015300000100240000400482DE9F84F044690F8DE
:101540005C0000261D469046894601280ED04FF0CB
:10155000010B84F85CB0FFF70DFB074694F85D00C3
:101560004146B246012804D00226A0E0022000F045
:10157000A4B8B9F1000F71D0B8F1000F6ED00320FC
:1015800084F85D00C4F860A0C4F83890A4F83C80EA
:10159000A4F83E80C4F840A0A4F844A0A4F846A053
:1015A000C4F850A0C4F84CA0A068B0F5004F04D116
:1015B0002068026842F48042026020680268520695
:1015C00003D4026842F040020260E068B0F5E06FC8
:1015D000606822D908B101291BD1A06B216800885D
:1015E000C86006E020688168890709D5A16B098871
:1015F000C160A06B801CA063E08F401EE08708E004
:10160000FFF7B8FAC01BA84202D3681C01D045E01E
:10161000A5B3E08F0028E5D135E008B101292FD12D
:10162000E08F0128A06B03D921680088C8600FE013
:1016300021680078087314E0E08721E02068816861
:10164000890714D5E18F0129A16B08D90988C160E8
:10165000A06B801CA063E08F801EEDE726E0097878
:101660000173A06B401CA063E08F401EE4E7FFF70E
:1016700081FAC01BA84202D3681C01D00EE06DB1F4
:10168000E08F0028DAD13A462946204601F010F8CA
:1016900008B120202066A06810B105E0032606E00E
:1016A0002068C16880680090206E00B1012684F82F
:1016B0005DB084F85CA0304659E718BCBDE8E08F07
:1016C0004FF0E0210428086903D020F004000861ED
:1016D000704740F00400FAE710B5401EB0F1807F7B
:1016E00001D3012010BD4FF0E02460610F2160178D
:1016F00000F05EFF0020A06107202061002010BDE7
:1017000070477047704710B5040003D094F83D004F
:1017100010B107E0012010BD002084F83C002046F5
:1017200000F00CF8022084F83D00211D206801F033
:101730004DF9012084F83D00002010BD08B5006877
:101740000B49884212D10B48816D41F0020181653D
:10175000806D032200F00200009001211D20FFF7A0
:101760004BFABDE808401D20FFF73BBA08BD00005A
:1017700000040040001002400168CA6842F0010203
:10178000CA600068826807490A40062A08D0826851
:101790000A40B2F5803F03D0016841F001010160C9
:1017A0000020704707000100704770B504460068CC
:1017B00001694FF00005C943890715D4C168C943C1
:1017C000890711D4E91E0161012020772068806912
:1017D0008007204602D0FFF7E7FF04E000F0A7F8FB
:1017E000204600F0A5F8257720680169C94349071C
:1017F00017D4C168C943490713D46FF004010161CC
:10180000022020772068806910F4407F204602D0B3
:10181000FFF7CAFF04E000F08AF8204600F088F8DD
:10182000257720680169C943090716D4C168C943EF
:10183000090712D46FF008010161042020772068A5
:10184000C0698007204602D0FFF7AEFF04E000F039
:101850006EF8204600F06CF8257720680169C943CE
:10186000C90617D4C168C943C90613D46FF0100163
:101870000161082020772068C06910F4407F20466D
:1018800002D0FFF791FF04E000F051F8204600F08D
:101890004FF8257720680169C943C90708D1C16895
:1018A000C943C90704D1891E0161204600F042F8EE
:1018B00020680169C943090609D4C168C9430906FA
:1018C00005D46FF0800101612046FFF71AFF206800
:1018D0000169C943C90509D4C168C943090605D4CA
:1018E0006FF4807101612046FFF70AFF20680169EB
:1018F000C943490609D4C168C943490605D46FF0F4
:1019000040010161204600F023F820680169C943C5
:1019100089060BD4C168C943890607D46FF020013A
:1019200001612046BDE87040FFF7ECBE70BD704716
:10193000704700000449884204D14FF40071034805
:10194000FFF70EB970470000D002002000100048D9
:1019500070477047704700002DE9F0410268044667
:10196000D0691168936810F00F0F4FF000055BD03D
:1019700003F0010601F49077374369D0C70707D019
:10198000CF0505D501271762626F42F00102626739
:10199000820708D5DA0706D0276802223A62626F0A
:1019A00042F004026267420708D5DA0706D02368CE
:1019B00004221A62626F42F00202626702070AD5CD
:1019C00001F02002324306D0236808221A62626FB7
:1019D00042F008026267626F002A32D0800605D5A5
:1019E000880603D5216E09B120468847606F00073D
:1019F00003D420688068400625D5204601F00CF904
:101A000020688168490619D5816821F0400181600C
:101A1000E06E98B120498163E06EFEF773FF002805
:101A20000FD0E06E816B06E0860611D58E060FD5CD
:101A3000216E1EE02046BDE8F04108472046FFF732
:101A400089FFBDE8F0812046FFF784FF6567F8E76E
:101A5000C60209D55B0207D54FF4801010622046FC
:101A6000BDE8F041FFF775BF030605D50B0603D5AA
:101A7000616E0029DED1E4E74006E2D54806E0D5F4
:101A80001168204621F040011160202184F8711076
:101A9000656600F0E4F8D4E7052C000810B50400F2
:101AA00003D094F8710010B107E0012010BD0020B0
:101AB00084F87000204600F027F8242084F8710094
:101AC0002068016821F001010160204601F0B4F8AE
:101AD0000128EBD0606A10B1204601F001F82068BF
:101AE000416821F4904141602068816821F02A0119
:101AF00081602068016841F0010101602046BDE875
:101B0000104001F051B8000010B50068164986B0C9
:101B1000884227D11548C16C41F00101C164C16CF4
:101B200001F001010591016E41F480410166006EF2
:101B3000012100F4804005904FF4007000900220D5
:101B4000CDE90101039007204FF0904404906946CD
:101B50002046FEF717FF4FF480610091694620464A
:101B6000FEF710FF06B010BD003801400010024023
:101B70002DE9F84F044690F87200984616460D4637
:101B8000202867D1FDB1F6B194F87000012861D02A
:101B9000012084F870004FF00009C4F874902220EE
:101BA00084F872005434FEF7E5FFA6808246E68092
:101BB00054F84C0C4FF48057FF21543CB84208D1E4
:101BC000206918B10DE0012000F046B840F2FF1086
:101BD0000DE07F2218B1B0F1805F05D009E02069E7
:101BE00050B9A4F85C1004E0206928B13F20A4F8A3
:101BF0005C00B4F85C601CE0A4F85C20F9E7534694
:101C0000002220212046CDF8008001F073F908B1B0
:101C10000320D9E7A068B84201D12069A0B12068AB
:101C2000808C304005F8010BB4F85A00401EA4F82F
:101C30005A00B4F85A000028E1D1202084F872003C
:101C400084F870900020BFE72068808C304025F831
:101C5000020BE9E70220B7E718BCBDE8E08F704748
:101C6000FEE72DE9F04107461C4615460E462A20A0
:101C700000F048FC380A00F053FCF8B200F050FCC9
:101C8000280A00F04DFCE8B200F04AFC2B2000F0DE
:101C900039FC300A00F044FCF0B200F041FC200AAC
:101CA00000F03EFCE0B200F03BFCBDE8F0412C202F
:101CB00000F028BC70B5050AC4B2EF2300211A4613
:101CC0000846FFF7CEFF0F4900204FF4107201F8CD
:101CD000105001EB4003401C80B25C709042F6D380
:101CE000012210210848FEF73FFF00244FF49065C1
:101CF0002946044800F082FA641CA4B2642CF7D38D
:101D000070BD000010030020000400482DE9FE4FC4
:101D10000025171A2C462E4699421BD1FFF7A1FF2A
:101D2000304931480A88110AD2B205E000F816108D
:101D300000EB4603761C5A70B742F7D801221021F7
:101D40002A48FEF711FF03B0790000F051B8264889
:101D500000F054BA5A1A834690468A464FF0FF3034
:101D6000002F02DD4FF0010102E003D14FF000012E
:101D7000019102E0C7F100070190B8F1000F02DD08
:101D80004FF0010002E003D14FF00000009002E0AC
:101D9000C2F1000800904046474501DD3E4600E0A4
:101DA0000646701C4FF00009029015E01FFA8AF1F8
:101DB0001FFA8BF000F0AAF83D444444B54202DD1E
:101DC0000199AD1B8B44B44202DD0099A41B8A44E7
:101DD00009F101001FFA80F902998945E6DD00F05A
:101DE0000CB800001400002010030020000400487C
:101DF00030BCBDE8C04FFFF7AABF1EBCBDE8E08FF6
:101E00002DE9F0411C4615460E4607460B46FFF7E6
:101E10007DFF3A46234631461046FFF777FF2346BB
:101E20002A4619463846FFF771FF2A4623463146AF
:101E3000BDE8F0411046FFF769BF2DE9FC5F804621
:101E40000024154603200F46A0EB450657E0A7EBFC
:101E50000409A8EB050A1FFA89F11FFA8AF000F0BD
:101E600055F808EB050001901FFA89F180B200F0E7
:101E70004DF8781981B2A8EB040B00901FFA8BF093
:101E800000F044F81FFA89F11FFA8AF000F03EF8DA
:101E9000A7EB05091FFA89F11FFA8BF000F036F85D
:101EA000019807EB040B1FFA8BF180B200F02EF8BB
:101EB0001FFA89F108EB04091FFA89F000F026F8EF
:101EC000009881B21FFA89F000F020F81FFA8BF118
:101ED0001FFA8AF000F01AF8641C002E03DA06EBF1
:101EE0008406B61D04E0601B06EB80066D1E0A36F4
:101EF000781981B208EB040080B200F007F8AC4218
:101F0000A5DD00F000B83CBCBDE8C09F10B50B4695
:101F10000246FFF7A6FE03480088BDE8104000F027
:101F20000DBB0000140000202DE9F047151A5F1AC0
:101F30006D1C7F1C7D4300246D004FF49068089E4B
:101F4000454502D9A5F590644546FFF78AFE370A54
:101F5000DFF84C90DFF84CA0F6B20020494606E0CE
:101F600001F8107001EB4002401C567080B2B0EBDB
:101F7000550FF5D3012210215046FEF7F5FD2946F5
:101F8000074800F03BF9002C07D0444502D9A4F5DE
:101F90009064E2E725460024DFE7BDE8F087000013
:101FA000100300200004004830B5254887B0C16CFC
:101FB00041F00201C164C16C01F002010591C16CE4
:101FC00041F00801C164C06C1E4C00F0080005908F
:101FD000D0200090012001900290022003906946D9
:101FE0002046FEF7CFFC0022D0212046FEF7BCFDA4
:101FF0008021154D009169462846FEF7C3FC00225A
:1020000080212846FEF7B0FD002280212846FEF7F9
:10201000ABFD002280212046FEF7A6FD00224021D4
:102020002046FEF7A1FD782001F012F801224021A0
:102030002046FEF799FD00F00BFB07B030BD000015
:102040000010024000040048000C004810B5FFF7E3
:10205000ABFF782000F0FCFF112000F053FA78204D
:1020600000F0F6FF362000F04DFA002000F058FA9C
:102070003A2000F047FA652000F052FAB22000F052
:1020800041FA0C2000F04CFA0C2000F049FA002034
:1020900000F046FA332000F043FA332000F040FA13
:1020A000B72000F02FFA722000F03AFABB2000F0BF
:1020B00029FA3D2000F034FAC02000F023FA2C2049
:1020C00000F02EFAC22000F01DFA012000F028FADC
:1020D000C32000F017FA192000F022FAC42000F003
:1020E00011FA202000F01CFAC62000F00BFA0F2095
:1020F00000F016FAD02000F005FAA42000F010FA43
:10210000A12000F00DFAE02000F0FCF9D02000F052
:1021100007FA042000F004FA0D2000F001FA112063
:1021200000F0FEF9132000F0FBF92B2000F0F8F985
:102130003F2000F0F5F9542000F0F2F94C2000F0B7
:10214000EFF9182000F0ECF90D2000F0E9F90B2070
:1021500000F0E6F91F2000F0E3F9232000F0E0F999
:10216000E12000F0CFF9D02000F0DAF9042000F0EF
:10217000D7F90C2000F0D4F9112000F0D1F9132088
:1021800000F0CEF92C2000F0CBF93F2000F0C8F988
:10219000442000F0C5F9512000F0C2F92F2000F0D2
:1021A000BFF91F2000F0BCF91F2000F0B9F9202072
:1021B00000F0B6F9232000F0B3F9212000F0A2F9D5
:1021C000292000F09FF9EF2300211A460846FFF767
:1021D00048FD4FF6FF70FFF76DFD0122BDE810408E
:1021E00080210148FEF7C0BC0004004803460120DE
:1021F00000E05843491EC9B2FBD270472DE9F041B7
:1022000005464FF6FF70B1FBF0F70E4600248046FE
:102210000FE007D1B6FBF8F108FB1161C4EB0440F5
:10222000284403E0C4EB04402844414600F036FA59
:10223000641CBC42EDD9BDE8F08100002DE9F05FDF
:10224000203AD5B21C46F022A2EB5402824256D369
:10225000C4F1F0028A4252DB0A19521E93B200EB1B
:102260005402521E92B2FFF7FCFC3F4F102C15D0C7
:10227000202C13D00C2C44D0182C40D13B4905EB1A
:1022800045004FF0300A002401EB0019B84619F858
:102290000460E00752D0042700255EE0600700D00C
:1022A000012000EBD400610810FB01F000F0FF0BEF
:1022B0002F48002600EB051A00F5BE5000EBC519AB
:1022C000B8461AE0102C09D0202C18D119F8065065
:1022D0000027280605D5B8F8000004E01AF80650D3
:1022E000F6E7B8F8020000F029F968067F1C050E31
:1022F000FFB2082FEDD3761CF6B25E45E2D300F0B4
:102300003BB81C4805EB45014FF00C09002600EBDB
:102310008108002418F80650280601D5388800E006
:10232000788800F00BF96806641C050EE4B2062CF0
:10233000F2D3761CF6B24E45EBD3E0E70827ABE7C5
:10234000300602D5B8F8000001E0B8F8020000F04D
:10235000F5F87006060E6D1CEDB2BD42F0D3641C9C
:10236000E4B2544593D3CAE7140000209C4B000804
:10237000AC4500083841000830BCBDE8C09F2DE9DD
:10238000F05F0027DDF828A01D4691468B46804669
:102390003C464FEA5A0623E0281B401EC1B20A20E1
:1023A000FFF724FFB9FBF0F00A21B0FBF1F201FBCB
:1023B000120027B9691E8C4201DA38B1012730308A
:1023C000C2B206FB048080B2534604E006FB0480E0
:1023D00080B2534620225946FFF730FF641CE4B216
:1023E000AC42D9D300F000B830BCBDE8C09F2DE9A5
:1023F000F047044600F0FF0810190D46DDE90876A5
:102400001FFA80FA58191FFA80F90FE0544502D3D9
:10241000E819444685B24D450DD23B462946204633
:10242000FFF70CFF04EB570084B2761C3278A2F160
:1024300020005E28EAD9BDE8F08700002DE9F041D0
:1024400015464419069F1E468446F02C15D8881957
:10245000F02812D8401E83B2641EA2B26046FFF775
:1024600000FC012210210648FEF77EFB754369003F
:102470003846BDE8F041FFF7C1BEBDE8F08100007D
:10248000000400482DE9FF5F4FF00008DDE90EBAB7
:102490001E469146074644464FEA5B0529E0301B3D
:1024A000401EC1B20A20FFF7A1FEB9FBF0F00A21DD
:1024B000B0FBF1F201FB1200B8F1000F05D1711E63
:1024C0008C4202DA40B14FF001083030C2B205FB55
:1024D000047080B25B4607E005FB0470BAF1000FA0
:1024E00080B25B4609D030220199FFF7A7FE641C39
:1024F000E4B2B442D3D300F002B82022F4E73FBCE8
:10250000BDE8C09F01B5002210210448FEF72CFB56
:1025100001216846FFF772FE08BD00000004004874
:1025200001B5012210210448FEF71EFB0121684677
:10253000FFF764FE08BD00000004004808B5002154
:102540000091010A8DF800108DF801000122102180
:102550000348FEF709FB02216846FFF74FFE08BD5E
:102560000004004830B50F4887B0C16C41F010013D
:10257000C164C06C4FF4607400F01000059001203D
:10258000CDE9004002900220074D0390694628469D
:10259000FEF7F8F9012221462846FEF7E5FA07B0D2
:1025A00030BD00000010024000100048FEE77047F8
:1025B0000907090E002806DA00F00F0000F1E020FC
:1025C00080F8141D704700F1E02080F80014704777
:1025D00070470000F8B51C4E05460024B06DC000E1
:1025E00002D5FEF7C7FB0DE0B06D40F08050B0653E
:1025F000B06D00F080500090FEF7BCFBB16D21F093
:102600008051B165B0F5007F04D0802D07D94FF01F
:1026100003040AE0802D08D9A02D01D804E001D1DF
:10262000022402E0702D00D101240848016821F045
:10263000070121430160006800F00700A04201D0BB
:102640000120F8BD0020F8BD00100240002002402B
:1026500010B5114C0F484FF4E06120604FF48270C8
:1026600060600020C4E90201022121610121616151
:102670004902C4E9061020626062A0620720E0629D
:102680002046FEF7DBFE2068016841F04001016052
:1026900010BD0000003C0040900700200A460146A3
:1026A0004FF47A730148FEF747BF000090070020FF
:1026B000F8B515460E460B460092044600224FF42C
:1026C000C05100F019F888B9334600228021204615
:1026D000009500F05CF848B9334600224FF4C06121
:1026E0002046009500F008F8002804D0206E40F045
:1026F000200020660320F8BD2DE9F0471D46164650
:102700000F4604464FF4C069DDF820800CE04F45C9
:1027100001D106B9007B681C06D0FEF72BFAA0EBAE
:102720000800A84208D23DB1206881683940B14212
:10273000EDD10020BDE8F0872068416821F0E0017C
:1027400041606068B0F5827F0BD1A068B0F5004FA2
:1027500002D0B0F5806F04D12068016821F04001FB
:102760000160A06AB0F5005F09D12068016821F41A
:10277000005101602068016841F4005101600120AE
:1027800084F85D00002084F85C000320D2E72DE986
:10279000F0411D4617460E460446DDF8188008E055
:1027A000681C06D0FEF7E6F9A0EB0800A8420BD2A1
:1027B00055B12068806836EA000030D00020B84269
:1027C000EED10020BDE8F0812068416821F0E001F1
:1027D00041606068B0F5827F0BD1A068B0F5004F12
:1027E00002D0B0F5806F04D12068016821F040016B
:1027F0000160A06AB0F5005F09D12068016821F48A
:10280000005101602068016841F40051016001201D
:1028100084F85D00002084F85C000320D2E70120EA
:10282000CDE77047FEF7ACB938B5284C4FF0FF3014
:1028300044F82C0FE06A40F08050E062E06A00F05B
:1028400080500090606E40F480306066FEF79AFA27
:102850001F4A4FF4807090611E48CA2301684B6282
:1028600053234B628B6823F480438B6001688B6831
:1028700023F400438B6001688B6823F440538B6022
:102880000168CB6803F0800363F46073CB60016878
:10289000CB6803F0800363F40863CB600168CB6806
:1028A00003F0800363F49063CB60616E21F48031A8
:1028B00061660068FF2141621F2090610220FEF7DF
:1028C00069FABDE83840FEF773BA00000010024014
:1028D00000700040F40700201A4810B5816D98B0D0
:1028E00041F080518165806D012100F0805016908B
:1028F0000804CDE90010022003240A90CDE90B4121
:1029000014210D910721CDE90E1010906846FEF7B5
:102910006BFB00B1FEE70F20CDE9110400201390FE
:1029200014901590042111A8FEF754FA00B1FEE7A7
:102930004FF40070FEF792F9002800D0FEE718B0BF
:1029400010BD0000001002400D48016841F4700104
:1029500001600C48016841F00101016000218160C3
:102960000268094B1A4002608214C260026822F4B5
:102970008022026081610249C0038039086070478B
:1029800088ED00E000100240FFFFF6EA0148FEF784
:102990000CBF0000D002002010B50A4C2068C068AF
:1029A000C043C00709D1084800698047216800205A
:1029B000486221686420C862E06021686FF001000D
:1029C000086110BD180800209C0000202DE9F04788
:1029D0000268264C264D274E274F284B4FF0804A41
:1029E000A04209D0504507D0A84205D0B04203D03C
:1029F000B84201D0984204D122F0700C4A6842EAF1
:102A00000C02DFF87CC0DFF87C80DFF87C90A0420D
:102A10000FD050450DD0A8420BD0B04209D0B842DB
:102A200007D0984205D0604503D0404501D04845C5
:102A300003D122F44075CA682A434D6922F080020E
:102A40002A4302608A68C2620A688262A04207D092
:102A5000984205D0604503D0404501D0484501D19A
:102A60000969016301214161BDE8F087002C014043
:102A70000004004000080040000C00400034014009
:102A800000400140004401400048014038B5114A6F
:102A900004460D46906D40F004009065906D032251
:102AA00000F00400009011461E20FEF7A5F81E203D
:102AB000FEF797F8094A00210748C2E9021411619C
:102AC000C2E900051046FEF71EFEBDE83840034887
:102AD000FEF752BE00100240000800401808002017
:102AE00090F82410C90706D001684A68836A22F466
:102AF00000321A434A6090F82410890706D501680D
:102B00004A68C36A22F480321A434A6090F824105B
:102B1000490706D501684A68036B22F480221A43EC
:102B20004A6090F82410090706D501684A68436B8B
:102B300022F400421A434A6090F82410C90606D5D0
:102B400001688A68836B22F480521A438A6090F885
:102B50002410890606D501688A68C36B22F40052E6
:102B60001A438A6090F82410490611D501684A6812
:102B7000036C22F480121A434A60016CB1F5801F85
:102B800006D101684A68436C22F4C0021A434A60C5
:102B900090F82410090606D501684A68806C22F472
:102BA000002202434A607047F8B500250446456795
:102BB000FDF7E0FF0746206800686FF07E460007DB
:102BC00008D53B4600224FF400112046009600F045
:102BD00091F960B92068006840070AD53B46002299
:102BE0004FF480012046009600F084F908B10320DC
:102BF000F8BD202084F8710084F8720084F87050C9
:102C00000020F8BD10B5806A0021A0F85A10A0F885
:102C10005210FEF79FFE10BD01680A6822F4907200
:102C20000A6001688A6822F001028A60202180F827
:102C300072100021016670472DE9F04704460068D4
:102C40002369A168D4F81CC01943636910250026C4
:102C500043EA0C0319439B4A03683746DFF868C20E
:102C600003EA0C030B43036020684168E36821F426
:102C70004051194341602168A069914201D0236A03
:102C800018438B6823F4306303438B608F4B2168B8
:102C90008F4899420DD1D0F8880010F0030006D07B
:102CA00001285AD0022856D0032859D157E00125CF
:102CB00056E0884B99420BD1D0F8880010F00C00F8
:102CC00047D0042849D0082845D00C2848D146E0F0
:102CD000814B99420BD1D0F8880010F0300038D0E9
:102CE00010283AD0202836D0302839D137E07B4B15
:102CF00099420BD1D0F8880010F0C00029D04028AC
:102D00002BD0802827D0C0282AD128E0744B9942A4
:102D10000ED1D0F8880010F440701AD0B0F5807F42
:102D20001BD0B0F5007F16D0B0F5407F18D116E06B
:102D3000914215D1D0F8880010F4406009D0B0F568
:102D4000806F0AD0B0F5006F05D0B0F5406F07D1A5
:102D500005E0002504E0022502E0042500E0082546
:102D6000604B4FF000084FF40040914244D135B120
:102D7000022D07D0042D07D0082D10D107E0FEF753
:102D8000BBF803E0184602E0FEF7DAF898B3626891
:102D900002EB4201814202D8B0EB023F01D9012788
:102DA00089E065B1022D0DD0042D13D0082D1BD064
:102DB00001274D49A6F5407088427AD9EFE7FEF722
:102DC0009BF809E05008494B11E00023FDF77DFA1C
:102DD0000646EEE7FEF7B4F86268010E05025008F9
:102DE000281841EB0801F0E750084FF40003C01821
:102DF00048F10001E9E75EE0E1694FF6EF798142D1
:102E00002ED1092D1DD2DFE805F00508121C151C76
:102E10001C1C1800FEF770F801E0FEF77FF8410077
:102E2000606801EB5001B1FBF0F086B20AE0304976
:102E30006068F6E7FEF784F8F1E74FF480316068E8
:102E4000EFE70127A6F110004845A8D84FF6F0712A
:102E500006EA0100C6F3420108432168C8602AE07F
:102E6000092D21D2DFE805F00508122016202020C8
:102E70001A00FEF741F801E0FEF750F801466068DD
:102E800001EB5001B1FBF0F086B20EE0606803EB9D
:102E90005001F7E7FEF754F8F0E70AE0616800EB4D
:102EA0005100B0FBF1F0EFE70127A6F11000484513
:102EB00084D82068C660C4F860803846C4F864804E
:102EC000BDE8F08700800040F369FFEF0038014063
:102ED000001002400044004000480040004C004008
:102EE000005000400024F400FFFC0F00000024F418
:102EF0000048E8012DE9F0411E4617468846044681
:102F0000069D1CE0681C1AD025B1FDF733FE801B1E
:102F1000A84214D92068016821F4D07101602068AA
:102F2000816821F001018160202084F8710084F81B
:102F30007200002084F870000320BDE8F081206852
:102F4000C16938EA010004D00020B842DAD000207C
:102F5000F3E70120F9E7000038B518480068C069B8
:102F6000C043800622D44FF47A7301226946134885
:102F7000FEF7FEFD124A1088010417D441049DF8A3
:102F800000104FF0000304D50A290ED140F4004090
:102F900012E00D290ED0C0F30D04084D401CC83DB1
:102FA00080B229551080C72800D913800348FEF746
:102FB000D3FC38BD40F480401080F7E75802002071
:102FC0000C000020FEE70000154810B5C16C86B06B
:102FD00041F00401C164C06C4FF4005400F00400DF
:102FE000059010486946CDE9004002200290039008
:102FF0000D48FDF7C7FC21460220FDF763FEFDF7F3
:10300000B1FEFDF739FC08B9FFF70EFC02221146AC
:103010002820FDF7F1FD2820FDF7E3FD06B010BDE7
:1030200000100240000011100008004830380A2843
:1030300001D20120704700207047704710B5044648
:103040000420FEF73DFB0148046010BD080000208D
:1030500070B5054600244FF47A7603E0304600F060
:1030600005F8641CAC42F9D370BD000070B54FF098
:10307000E02500216C69094AAB6912685043AA69CE
:103080009A42FCD002D2A3EB020302E0A4EB0206B8
:103090003344194413468142F1D370BD0800002027
:1030A00004490A685206FCD5024AC1B20C321180AA
:1030B000704700001C3801401CB5FDF769FDFFF7A3
:1030C0000BFC5020FFF7BAFF4FF4E13000F064F83A
:1030D000FFF748FAFFF778FFFEF7B8FF0021084630
:1030E000FDF702FC1A494FF478401024088019A01B
:1030F000CDE900402346C82264211E20FFF777F95E
:1031000019A0CDE900401023C82278211E20FFF726
:103110006EF918A0CDE900401023C8228C211E2092
:10312000FFF765F917A0CDE900401023C822A021C0
:103130001E20FFF75CF9164D64014FF4FA76214624
:103140002846FDF70DFD3046FFF782FFF7E7000048
:103150001400002050616E646F72612053544D332F
:10316000324C3420494F5400574B5550205445534E
:103170005400000041544F4D40414C49454E544588
:103180004B000000323031382F31302F3237000001
:10319000001000480068704710B50F4C0D49C4E995
:1031A00000100020A060E0602061A0610C20606140
:1031B0002046FEF773FC2068016841F020010160A1
:1031C0002520FDF70EFD0322BDE810401146252005
:1031D000FDF712BD003801405802002070B594B0D0
:1031E000064613AB11AA694600F0DCF9002824D189
:1031F0008DF840001D4C042514E0206805EBC1014A
:1032000013AB405812AA08A900F0CCF9002814D139
:10321000694608A800F005FC88B19DF84000401CF4
:103220008DF84000207D9DF840108842E5D8207D33
:103230009DF8401088420ED1042014B070BD9DF856
:1032400048009DF84410884201D90220F5E79DF816
:103250004000A075EBE710A9304600F05BFA0028AB
:10326000EBD19DF8400060750020E6E79C0000204F
:103270002DE9F0417E4E9AB0B57D307DA8427CD9D3
:103280000421306801EBC50119AB405818AA10A9F8
:1032900000F088F910A977A0FDF78EF800240DF151
:1032A000180832E0308B0121A140084217D02221BA
:1032B00072A0FDF781F8204600F094FA811970A001
:1032C0002431FDF779F822216CA0FDF775F820462E
:1032D00000F088FA3044243048F824000BE02046FF
:1032E00000F080FA3044416A48F82410F07D00B3C1
:1032F00064A0FDF761F89DF86000401E844202D092
:1033000062A0FDF759F8641CE4B29DF860008442A5
:10331000C8D35FA0FDF750F800F0AAFA707D0B2823
:1033200014D2DFE800F0080D31384048525E6B7867
:10333000890058A0DDE7306850F83500804704E088
:10334000306850F8351006988847074600F05CFA58
:103350009DF8640001286ED04FA0FDF72DF896F877
:10336000EC0000280DD0D6F8F0000A21B0FBF1F2F5
:1033700001FB1202B0FBF1F100E002E047A0FDF713
:103380001BF81AB0BDE8F081306850F83520DDE94F
:1033900006019047D9E7306806AC50F8353094E81C
:1033A00007009847D1E7306806AF50F8354097E8F6
:1033B0000F00A047C9E70A980090306806AF50F8A0
:1033C000354097E80F00A047BFE7DDE90A01CDE9E6
:1033D0000001306806AF50F8354097E80F00A0476D
:1033E000B3E70AAB06AF93E807008DE80700306843
:1033F00050F8354097E80F00A047A6E70AAC06AFA3
:1034000094E80F008DE80F00306850F8354097E8D9
:103410000F00A04799E70BAC06AF94E80F0001AC92
:1034200084E80F000A980090306850F8354097E81B
:103430000F00A04789E711E00CAC06AF94E80F003D
:1034400002AC84E80F00DDE90A01CDE90001306833
:1034500050F8354097E80F00A04776E7F07D3946F1
:1034600018B116A0FCF7A8FF79E717A0FAE700004B
:103470009C0000200D0A2573280000002563000031
:103480002573000030582558000000002C00000073
:1034900029000000256C64003B0D0A0046756E6330
:1034A00074696F6E2052756E2054696D653A25649B
:1034B0002E2531646D730D0A000000003D30582543
:1034C000583B0D0A000000003D256C753B0D0A00BD
:1034D000F0B500252E462F462C4603782C2B03D022
:1034E000292B04D01BB103E014B9012600E00CB372
:1034F00017B1222B2AD02AE0A3F1300CBCF1090F1E
:1035000019D92D2B17D02B2B15D0A3F1610CBCF1A1
:10351000050F10D9A3F1410CBCF1050F0BD9582BA5
:1035200009D0782B07D0222B0CD0202B1ED02C2B8F
:103530001CD0FF270CE05EB9612B00D3203B01F8C3
:10354000013B13E026B901273C460FE0002426B1D9
:103550000020087017702846F0BD3CB15C2B02D1EA
:103560006D1CEDB2401C037801F8013B6D1CEDB2FF
:10357000401CB2E730B5002515700AE001F8014B98
:103580001478401C641CE4B214709C4201D30120E6
:1035900030BD0478202C01D0002CEFD10D7000201C
:1035A00030BD00002DE9FF4F002482B089469846C7
:1035B000A2462746012526462246EB46029915E0FB
:1035C000202810D002F07F03052B0CD202B98022F4
:1035D00002F07F03042B01D12A280AD1521C0BF8D8
:1035E0000300D2B201E0852A04D0491C08780028E3
:1035F000E6D16AB102F07F0200200BF8020041A17F
:10360000584600F00EFA38B1012188F80010002267
:103610004FF00008029B15E0002088F80000F6E754
:1036200008F1010000F0FF0813F8010F202801D075
:103630002A2807D1184600F081F9282802D02A2824
:1036400000D0C2461878282801D00028E8D1029975
:10365000BAF1000F01D05144491C4FF00008434615
:10366000087888B1282804D0292806D0222810D02C
:1036700011E083B9641CE4B20DE063B924B1641EA7
:1036800014F0FF0402D00DE04FF00108012F27D005
:103690002FE04BB100234CB12C280CD0202816D0A1
:1036A000282814D05AB110E00123F4E7202815D0BF
:1036B00009F8010B12E00125521CD2B207E0052ED9
:1036C00003D20BF80600761CF6B26D1CEDB2012C8D
:1036D00004D1022D02D103257F1CFFB2491CBFE794
:1036E00000200BF8060007A1684600F09AF900B91F
:1036F000002704980770002089F8000006B04046B3
:1037000000F004B8766F69640000000030BCBDE8CA
:10371000C08F00002DE9F04300248946304DB5B03C
:10372000214622466B18491CC9B29A760A29F9D358
:1037300002E010F8011F99B101782829F9D1461C3F
:103740004FF0010833AA69463046FFF7C1FE064430
:103750009DF8CC0040B1012824D0FF2836D10BE0E1
:10376000012035B0BDE8F0839DF8000070B334A9A6
:10377000684600F0EBF808B10220F2E7204600F0BE
:1037800031F8284434994162298B08FA04F08143C6
:103790002983042029198876641CE4B20A2C15D9DF
:1037A0000320DEE7684600F051F9471C204600F090
:1037B00019F841196846243100F03FF9298B08FABD
:1037C00004F00143281929838776E5E73078292812
:1037D00001D00028B6D189F800400020C1E70000E0
:1037E0009C000020024610B500200146054B05E074
:1037F0005C18491CA47EC9B22044C0B29142F7D3E0
:1038000010BD00009C000020094800680169C94300
:10381000CA070849D1F8F02004D14FF6FF731A44C3
:10382000C1F8F020406A1044C1F8F0007047000071
:10383000180800209C00002000EBC00101EB0010E4
:103840004FF0FF3101EB800010B581B24FF47A7078
:10385000FFF71CF901490120C87510BD9C0000202C
:103860000346012000E05843491EC9B2FBD270470D
:1038700007486FF00101026811610268090CD1620A
:10388000C1600068002141620248C0F8F010704732
:10389000180800209C0000202DE9F041164E3088C9
:1038A000010426D51549C0B2154F00250D54B9683D
:1038B0001248884704000FD0104800F0D1F80128C2
:1038C00001D0040014D0012C09D0022C09D0032C03
:1038D00009D0042C0CD108E0F868804708E009A062
:1038E00004E00BA002E00DA000E00FA0FCF764FDD7
:1038F0003580BDE8F08100000C0000209001002020
:103900009C000020BAAFCAFDB4EDCEF3210D0A0031
:10391000B2CECAFDB4EDCEF3210D0A00B2CECAFD7F
:10392000CCABB6E0210D0A00CEB4D5D2B5BDC6A54C
:10393000C5E4B5C4BAAFCAFD210D0A0010F8011FD5
:10394000202901D10028F9D1C8B270472DE9F043F0
:103950000E4600244FF00A082546014634600A78D6
:10396000A2F13003092B14D903782D2B01D02B2B76
:1039700000D174B1A2F14103052B0AD9582A05D010
:1039800012F0FF0F17D00120BDE8F083012C02D008
:10399000F9E7412A01D34FF0100802782D2A04D00C
:1039A0002B2A04D0641CE4B203E0022500E00125C8
:1039B000401C491CD3E70746B8F1100F01D084B171
:1039C00012E0032C01D20220DEE73878302802D141
:1039D0007878582801D00320D6E7A41EE4B2BF1C93
:1039E00001E00420D0E70CB1641EE4B2387801464F
:1039F0003038092801D8814601E0A1F13709214674
:103A00004046FFF72DFF326809FB0020306017F8B1
:103A1000011F0029E7D1022D01D140423060002072
:103A2000B2E702780B789A4201D00120704712B1B8
:103A3000401C491CF5E70020704702780A700278A4
:103A4000002A02D0401C491CF7E770470021027889
:103A50001AB1491CC9B2401CF9E70846704700007A
:103A6000F0B58DB004461E2308AA6946FFF782FD13
:103A70000990002872D19DF82000271800253E4C9F
:103A80008DF820509DF8200054F820106846FFF76C
:103A9000C8FF38B19DF82000401CC0B28DF820004E
:103AA0000728EFD39DF820000426344C072855D270
:103AB000DFE800F00404395A605F5E0030A0FCF7D4
:103AC0007BFC30A0FCF778FC3EA0FCF775FC4DA019
:103AD000FCF772FC5BA0FCF76FFC6AA0FCF76CFCC7
:103AE00078A0FCF769FC86A0FCF766FC8BA0FCF7CD
:103AF00063FC93A0FCF760FC97A0FCF75DFC9CA026
:103B0000FCF75AFCA1A0FCF757FCA7A0FCF754FC5B
:103B1000B3A0FCF751FCC0A0FCF74EFCCBA0FCF717
:103B20004BFCD7A01BE016A0FCF746FCE4A0FCF77A
:103B300043FC8DF820500BE0216806EBC0000958CB
:103B4000EFA0FCF739FC9DF82000401C8DF8200008
:103B5000217D9DF820008142EED856E257E2FCF725
:103B60002BFC00200DB0F0BD05A0FCF725FCCBE13F
:103B70002CE20CE2EBE10000180000209C00002089
:103B80000D0A00002D2D2D2D2D2D2D2D2D2D2D2D02
:103B90002D2D2D2D2D2D2D2D2D2D2D2D55534D41D3
:103BA00052542056332E332D2D2D2D2D2D2D2D2DD0
:103BB0002D2D2D2D2D2D2D2D2D2D2D2D2D2D2D2042
:103BC0000D0A00002020202055534D415254CAC7F1
:103BD000D3C9414C49454E54454BBFAAB7A2B5C4C1
:103BE000D2BBB8F6C1E9C7C9B5C4B4AEBFDAB5F740
:103BF000CAD4BBA5BDBBD7E9BCFE2CCDA8B9FD205E
:103C00000D0A0000CBFC2CC4E3BFC9D2D4CDA8B9A7
:103C1000FDB4AEBFDAD6FACAD6B5F7D3C3B3CCD0AB
:103C2000F2C0EFC3E6B5C4C8CEBACEBAAFCAFD2C57
:103C3000B2A2D6B4D0D02ED2F2B4CB2CC4E3BFC93A
:103C40000D0A0000D2D4CBE6D2E2B8FCB8C4BAAFB9
:103C5000CAFDB5C4CAE4C8EBB2CECAFD28D6A7B324
:103C6000D6CAFDD7D62831302F3136BDF8D6C62C6E
:103C7000D6A7B3D6B8BACAFD29A1A2D7D6B7FBB486
:103C8000AE0D0A00A1A2BAAFCAFDC8EBBFDAB5D823
:103C9000D6B7B5C8D7F7CEAAB2CECAFD292CB5A5DE
:103CA000B8F6BAAFCAFDD7EEB6E0D6A7B3D6313074
:103CB000B8F6CAE4C8EBB2CECAFD2CB2A2D6A7B3FE
:103CC000D60D0A00BAAFCAFDB7B5BBD8D6B5CFD4AA
:103CD000CABE2ED6A7B3D6B2CECAFDCFD4CABEBDF9
:103CE000F8D6C6C9E8D6C3B9A6C4DC2CD6A7B3D6C5
:103CF000BDF8D6C6D7AABBBBB9A6C4DC2E0D0A0038
:103D0000BCBCCAF5D6A7B3D63A7777772E6F706565
:103D10006E6564762E636F6D0D0A000055534D413C
:103D20005254D3D037B8F6CFB5CDB3C3FCC1EE28CB
:103D3000B1D8D0EBD0A1D0B4293A0D0A00000000D0
:103D40003F3A202020202020BBF1C8A1B0EFD6FAB6
:103D5000D0C5CFA20D0A000068656C703A20202003
:103D6000BBF1C8A1B0EFD6FAD0C5CFA20D0A0000B2
:103D70006C6973743A202020BFC9D3C3B5C4BAAFED
:103D8000CAFDC1D0B1ED0D0A0A00000069643A20F5
:103D900020202020BFC9D3C3BAAFCAFDB5C449444F
:103DA000C1D0B1ED0D0A0A006865783A20202020C4
:103DB000B2CECAFD3136BDF8D6C6CFD4CABE2CBAF3
:103DC000F3B8FABFD5B8F12BCAFDD7D6BCB4D6B478
:103DD000D0D0BDF8D6C6D7AABBBB0D0A0A000000DA
:103DE0006465633A20202020B2CECAFD3130BDF890
:103DF000D6C6CFD4CABE2CBAF3B8FABFD5B8F12B09
:103E0000CAFDD7D6BCB4D6B4D0D0BDF8D6C6D7AAD2
:103E1000BBBB0D0A0A00000072756E74696D653ACD
:103E2000312CBFAAC6F4BAAFCAFDD4CBD0D0BCC621
:103E3000CAB13B302CB9D8B1D5BAAFCAFDD4CBD0BA
:103E4000D0BCC6CAB13B0D0A0A000000C7EBB0B433
:103E5000D5D5B3CCD0F2B1E0D0B4B8F1CABDCAE484
:103E6000C8EBBAAFCAFDC3FBBCB0B2CECAFDB2A2AA
:103E7000D2D4BBD8B3B5BCFCBDE1CAF82E0D0A0044
:103E80002D2D2D2D2D2D2D2D2D2D2D2D2D2D2D2D62
:103E90002D2D2D2D2D2D2D2D2D2D414C49454E54A3
:103EA000454B2D2D2D2D2D2D2D2D2D2D2D2D2D2D0C
:103EB0002D2D2D2D2D2D2D2D2D2D2D200D0A0000DC
:103EC0002D2D2D2D2D2D2D2D2D2D2D2D2D2D2D2D22
:103ED0002D2D2D2D2D2D2D2D2DBAAFCAFDC7E5B5BC
:103EE000A52D2D2D2D2D2D2D2D2D2D2D2D2D2D2D8A
:103EF0002D2D2D2D2D2D2D2D2D2D2D2D200D0A006F
:103F000025730D0A0000000042A0FCF755FA8DF859
:103F1000205016E0216806EBC0000BAB08580AAA37
:103F20006946FFF73FFB9DF82010206850F83120CC
:103F3000694648A0FCF740FA9DF82000401C8DF827
:103F40002000217D9DF820008142E3D85DE0AFF2A2
:103F5000D030FCF731FA08AA69463846FFF7B8FABC
:103F60009DF82000002843D109A96846FFF7EEFC20
:103F70008DF8200010B104283AD102E03AA0099946
:103F80001CE03CA0FCF718FA0120E0753DE038A0E9
:103F9000FCF712FA08AA69463846FFF799FA9DF825
:103FA000200028BB09A96846FFF7D0FC8DF8200047
:103FB00010B104281CD104E033A00999FCF7FCF9E6
:103FC00023E034A0FCF7F8F9E5751EE028A0FCF723
:103FD000F3F908AA69463846FFF77AFA9DF82000F7
:103FE00030B909A96846FFF7B1FC8DF8200008B187
:103FF0000220B7E5099810F0FF0084F8EC0001D02A
:1040000029A000E02FA0FCF7D7F919A0A7E501200F
:10401000A8E500002D2D2D2D2D2D2D2D2D2D2D2DF7
:104020002D2D2D2D2D2D2D2D2D2D2D2D2DBAAFCA14
:10403000FD204944202D2D2D2D2D2D2D2D2D2D2DC7
:104040002D2D2D2D2D2D2D2D2D2D2D2D2D2D2D2DA0
:10405000200D0A0025732069642069733A0D0A3027
:1040600058253038580D0A004845583A30582558D8
:104070000D0A00003136BDF8D6C6B2CECAFDCFD487
:10408000CABE210D0A0000004445433A256C750D57
:104090000A0000003130BDF8D6C6B2CECAFDCFD47A
:1040A000CABE210D0A00000052756E2054696D656C
:1040B0002043616C63756C6174696F6E204F4E0DA7
:1040C0000A00000052756E2054696D652043616CD2
:1040D00063756C6174696F6E204F46460D0A00006F
:1040E000016070474FF04070E1EE100A7047000029
:1040F0000000000000000000010203040607080998
:10410000A0860100400D0300801A060000350C0057
:1041100040420F0080841E0000093D0000127A001A
:104120000024F40000366E010048E801006CDC0257
:104130000000000001020304000000000000000075
:1041400000000000000020202020200000200000AF
:10415000282850000000000000000000000050501F
:10416000F85050F850500000002070A8A06030288F
:10417000A8702000000048A8B0A87434544800007B
:1041800000002050506CA8A89468000040408000B7
:104190000000000000000000081010202020202057
:1041A0001010080040202010101010102020400097
:1041B00000000020A87070A820000000000000107F
:1041C000107C101000000000000000000000000043
:1041D000404080000000000000FC000000000000E3
:1041E000000000000000000000400000000408087B
:1041F0001010202040408000000070888888888847
:104200008870000000002060202020202070000026
:10421000000070888810204080F80000000070883E
:10422000083008088870000000001030305090F806
:10423000103800000000F88080F0880888700000C6
:104240000000304880B0C8888870000000007808FE
:1042500010102020202000000000708888708888BE
:1042600088700000000070888898680890600000DE
:1042700000000000200000000020000000000000FE
:1042800000200000002020000000081020404020F6
:104290001008000000000000FC00FC00000000000E
:1042A0000000402010080810204000000000708826
:1042B00088102020002000000000384494B4B4B8D6
:1042C00044380000000020203050507848CC0000D6
:1042D0000000F0484870484848F000000000788826
:1042E00080808080887000000000F048484848487E
:1042F00048F000000000F8485070504048F80000B6
:104300000000F8485070504040E00000000038487D
:1043100080809C88483000000000CC48487848489D
:1043200048CC00000000F8202020202020F80000C9
:1043300000007C1010101010101090E00000EC48ED
:104340005060504848EC00000000E04040404040D1
:1043500044FC00000000DCD8D8D8A8A8A8AC000015
:104360000000DC486868585848E800000000708881
:1043700088888888887000000000F04848704040B5
:1043800040E0000000007088888888E89870180075
:104390000000F0484870504848EC00000000788861
:1043A0008060100888F000000000F8A8202020207D
:1043B000207000000000CC484848484848300000C1
:1043C0000000CC4848505030202000000000A8A831
:1043D000A8A87050505000000000D8505020205025
:1043E00050D800000000D85050502020207000000D
:1043F0000000F8901020204048F8000038202020CD
:1044000020202020202038000040402020201010B4
:10441000100808007010101010101010101070000C
:10442000205000000000000000000000000000001C
:1044300000000000000000FC402000000000000020
:10444000000000000000000000304838483C000038
:1044500000C0404040704848487000000000000024
:10446000003848404830000000180808083848481C
:10447000483C000000000000003048784038000050
:104480000018242020782020207800000000000060
:10449000003C48304038443800C0404040704848F4
:1044A00048EC000000202000006020202070000068
:1044B0000010100000301010101010E000C040403C
:1044C0004058506050C8000000E0202020202020EC
:1044D00020F800000000000000F0A8A8A8A8000034
:1044E0000000000000F0484848EC00000000000018
:1044F00000304848483000000000000000F0484804
:10450000487040E000000000003848484838081C67
:104510000000000000D8604040E000000000000003
:10452000007840300878000000000020207820202B
:10453000203800000000000000D84848483C000037
:104540000000000000D850502020000000000000B3
:1045500000A8A870505000000000000000D85020B3
:1045600050D800000000000000CC4848301020C0A7
:1045700000000000007810202078000018101010B3
:104580001030101010101800101010101010101013
:10459000101010106020202020102020202060000B
:1045A0006890000000000000000000000000000013
:1045B00000000000000000000000000000000010EB
:1045C0001010101010100000101000000012242411
:1045D0004800000000000000000000000000001281
:1045E00012127E2424247E24242400000000083C8F
:1045F0004A4A48380C0A0A4A4A3C08080000004463
:10460000A4A8A8B0541A2A2A4A4400000000003086
:10461000484848506EA49498897600000060202095
:10462000400000000000000000000000000204083C
:10463000081010101010100808040200004020108C
:1046400010080808080808101020400000000000AA
:104650001010D63838D610100000000000000000FE
:10466000000808087F08080800000000000000009B
:10467000000000000000000060202040000000005A
:10468000000000007E0000000000000000000000AC
:104690000000000000000000606000000000020454
:1046A00004040808101010202040400000000018EA
:1046B00024424242424242422418000000000008C4
:1046C0003808080808080808083E00000000003CF8
:1046D0004242420204081020427E00000000003CDA
:1046E0004242020418040242423C0000000000045E
:1046F0000C0C142424447F04041F00000000007EDE
:104700004040407844020242443800000000001853
:104710002440405C62424242221C00000000007EB5
:104720004204040808101010101000000000003CA3
:104730004242422418244242423C00000000003819
:1047400044424242463A020224180000000000009F
:1047500000001818000000001818000000000000F9
:104760000000001000000000001010100000000207
:10477000040810204020100804020000000000007F
:1047800000007E00007E00000000000000000040ED
:104790002010080402040810204000000000003C23
:1047A000424262040808080018180000000000389F
:1047B000445AAAAAAAAAAA5C423C0000000000101F
:1047C00010182828243C444242E70000000000F86A
:1047D000444444784442424244F800000000003E11
:1047E000424280808080804244380000000000F80F
:1047F000444242424242424244F80000000000FC6F
:10480000424848784848404242FC0000000000FC12
:10481000424848784848404040E000000000003CE2
:1048200044448080808E844444380000000000E7C7
:10483000424242427E42424242E700000000007C87
:104840001010101010101010107C00000000003E1E
:104850000808080808080808080888F0000000EEA2
:10486000444850705048484444EE0000000000E0C6
:10487000404040404040404042FE0000000000EE0A
:104880006C6C6C6C6C54545454D60000000000C71F
:10489000626252524A4A4A4646E20000000000382C
:1048A000448282828282828244380000000000FCBE
:1048B000424242427C40404040E00000000000385C
:1048C00044828282828282B24C380600000000FC60
:1048D0004242427C4848444442E300000000003E1B
:1048E0004242402018040242427C0000000000FEC8
:1048F000921010101010101010380000000000E787
:104900004242424242424242423C0000000000E732
:10491000424244242428281810100000000000D629
:1049200054545454546C282828280000000000E7F0
:10493000422424181818242442E70000000000EE46
:104940004444282810101010103800000000007E89
:10495000840408081020204242FC0000001E1010B1
:10496000101010101010101010101E000000402029
:10497000202010101008080404040202007808081F
:104980000808080808080808080878000018240023
:104990000000000000000000000000000000000017
:1049A0000000000000000000000000FF0060100098
:1049B00000000000000000000000000000000000F7
:1049C00000000038440C34444C3600000000000065
:1049D000C040405864424242645800000000000059
:1049E0000000001C22404040221C0000000000008B
:1049F0000602023E42424242463B000000000000E6
:104A00000000003C42427E40423C000000000000AA
:104A10000C12107C10101010107C00000000000020
:104A20000000003E444438403C42423C000000004C
:104A3000C040405C6242424242E700000000003059
:104A40003000007010101010107C00000000000CEE
:104A50000C00001C0404040404044478000000005A
:104A6000C040404E4850704844EE00000000001026
:104A70007010101010101010107C000000000000CA
:104A8000000000FE4949494949ED000000000000CE
:104A9000000000DC6242424242E7000000000000E9
:104AA0000000003C42424242423C00000000000044
:104AB000000000D864424242645840E00000000018
:104AC0000000001A26424242261A02070000000097
:104AD000000000EE3220202020F80000000000003E
:104AE0000000003E42403C02427C0000000000000A
:104AF0000010107C10101010120C000000000000BC
:104B0000000000C642424242463B00000000000056
:104B1000000000EE444428281010000000000000AF
:104B2000000000DB894A5A542424000000000000E1
:104B30000000007624181818246E00000000000001
:104B4000000000E742242418181010600000000044
:104B50000000007E44081010227E000000030404C0
:104B600004040404080404040404030008080808F6
:104B700008080808080808080808080800C02020D5
:104B800020202020102020202020C000205A0400B7
:104B90000000000000000000000000000000000015
:104BA0000000000000000000000000000000000005
:104BB00000000000000000000000000000000000F5
:104BC00000000000000000000000000000000000E5
:104BD00000000000060006000600060006000600B1
:104BE00006000200040004000400000000000000B1
:104BF00006000600060000000000000000000000A3
:104C0000066006600CC01980110022000000000040
:104C10000000000000000000000000000000000094
:104C20000000000000000000000000000000000084
:104C30000000000008400840084008407FE07FE096
:104C4000104010801080108010807FE07FE0208076
:104C50002080208020800000000000000000000074
:104C60000000020002000F801AC032C033C03200C0
:104C70001A000E0007000380038002C032C03AC051
:104C800032C012800F00020002000000000000008D
:104C900000000000708050808900890089008A002F
:104CA0008A005C0075C005400A200A2012201220EC
:104CB0001220214021C00000000000000000000080
:104CC000000000001C0036003600360036003600BA
:104CD000340019E038805880CC80CC80C680C70072
:104CE000C31063903CE000000000000000000000E2
:104CF000300038000800080010002000000000000C
:104D000000000000000000000000000000000000A3
:104D10000000000000000000000000000000000093
:104D20000020004000800100010002000200040099
:104D30000400040004000400040004000200020057
:104D40000100010000800040002000000000000081
:104D500040002000100008000800040004000200C9
:104D6000020002000200020002000200040004002F
:104D700008000800100020004000000000000000B3
:104D8000000000000000000002000300020062308A
:104D900072F00B800F807AF0623002000200020095
:104DA0000000000000000000000000000000000003
:104DB00000000000000000000000020002000200ED
:104DC000020002007FF00200020002000200020066
:104DD00000000000000000000000000000000000D3
:104DE00000000000000000000000000000000000C3
:104DF00000000000000000000000000000000000B3
:104E000030003800080008001000200000000000FA
:104E10000000000000000000000000000000000092
:104E2000000000007FE00000000000000000000023
:104E30000000000000000000000000000000000072
:104E40000000000000000000000000000000000062
:104E50000000000000000000000000000000000052
:104E6000380038003800000000000000000000009A
:104E700000200060004000C00080008001000100B0
:104E800002000200060004000400080008001000F0
:104E90001000300020006000400000000000000012
:104EA0000000000000000F00198030C030C06060BA
:104EB000606060606060606060606060606030C0C2
:104EC00030C019800F00000000000000000000004A
:104ED00000000000000002003E0006000600060080
:104EE0000600060006000600060006000600060092
:104EF000060006003FC000000000000000000000A7
:104F00000000000000001F00218040C060C060C0A1
:104F100000C000800180030006000400080010406B
:104F2000204060407FC00000000000000000000042
:104F30000000000000001E006300618061800180AD
:104F4000018003000E000180008000C000C060C02E
:104F500060C061801F000000000000000000000031
:104F600000000000000001800180038005800580B2
:104F7000098011801180218041807FF001800180B3
:104F80000180018007E00000000000000000000038
:104F90000000000000003FC0200020002000200092
:104FA00020002F00318020C000C000C060C060C061
:104FB000418021801F000000000000000000000070
:104FC000000000000000078018C030C03000200042
:104FD0006000678068C070606060606060602060D2
:104FE000304018C00F00000000000000000000006A
:104FF0000000000000001FE03060204020800080A2
:10500000008001000100020002000200060006000C
:10501000060006000600000000000000000000007E
:105020000000000000001F8030C0606060606060B1
:10503000304038C00F00138030C060606060606036
:10504000606030C00F800000000000000000000021
:105050000000000000000F00308030C06040606041
:105060006060606060E031601E60006000C000C091
:10507000308031801E0000000000000000000000B1
:105080000000000000000000000000000000000020
:1050900007000700070000000000000000000000FB
:1050A00007000700070000000000000000000000EB
:1050B00000000000000000000000000000000000F0
:1050C00006000600000000000000000000000000D4
:1050D00000000600060002000400040000000000BA
:1050E00000000000002000400080010002000400D9
:1050F0000800100020001000080004000200010059
:1051000000800040002000000000000000000000BF
:10511000000000000000000000000000000000008F
:105120007FE00000000000007FE0000000000000C1
:10513000000000000000000000000000000000006F
:105140000000000020001000080004000200010020
:1051500000800040002000400080010002000400A8
:105160000800100020000000000000000000000007
:1051700000000000000007C01860203020303030F0
:10518000303000E001800200020002000000000058
:1051900007000700070000000000000000000000FA
:1051A00000000000070018C0304033A026A066A011
:1051B00065A06D206D206D206D206D402780302012
:1051C000304018C00F000000000000000000000088
:1051D000000000000000060006000A000B000900A5
:1051E00009001100118010801F8020C020C02040C5
:1051F00040404060F0F000000000000000000000AF
:105200000000000000007F0031C030C030C030C05E
:1052100030C031803F0030C030403060306030609E
:10522000306030C07F8000000000000000000000FF
:1052300000000000000007C018C0306030202020AF
:10524000600060006000600060006000602030204E
:10525000304018C00F0000000000000000000000F7
:10526000000000000000FE00318030C030C030601F
:10527000306030603060306030603060306030C04E
:1052800030C03180FE00000000000000000000007F
:10529000000000000000FFC060C0602060206000CF
:1052A000610061007F0061006100610060006020BA
:1052B00060206040FFC0000000000000000000000F
:1052C000000000000000FFC060C06020602060009F
:1052D000610061007F0061006100610060006000AA
:1052E00060006000F8000000000000000000000006
:1052F0000000000000000F001880304030402040C7
:10530000600060006000600063F060C060C030C09A
:1053100030C018C00F0000000000000000000000B6
:10532000000000000000F0F060606060606060609D
:10533000606060607FE060606060606060606060CE
:1053400060606060F0F000000000000000000000FD
:105350000000000000003FC0060006000600060036
:10536000060006000600060006000600060006000D
:10537000060006003FC00000000000000000000022
:105380000000000000001FE0030003000300030012
:1053900003000300030003000300030003000300F5
:1053A000030003000300630066003C0000000000EF
:1053B000000000000000F3C0618063006200640030
:1053C00068006C0074007600620063006100618018
:1053D000608060C0F1E000000000000000000000FC
:1053E000000000000000F800600060006000600045
:1053F000600060006000600060006000600060208D
:1054000060206040FFC000000000000000000000BD
:10541000000000000000E0E061C061C071C071C028
:1054200072C072C052C05AC05AC05CC04CC04CC09E
:105430004CC048C0E1E00000000000000000000097
:1054400000000000000071F03040384038402C402F
:105450002C402640264022402340214021C021C02C
:1054600020C020C0F8400000000000000000000044
:105470000000000000000F00198030C03040606064
:10548000606060606060606060606060606030406C
:1054900030C019800F000000000000000000000074
:1054A000000000000000FF0060C06060606060609D
:1054B0006060606061C07F0060006000600060004C
:1054C00060006000F8000000000000000000000024
:1054D0000000000000000F00198030C03040606004
:1054E0006060606060606060606060606E603240FC
:1054F00033C019800F0001E000C000000000000070
:10550000000000000000FF8060C0606060606060BC
:10551000606060C07F00620063006100618060C005
:1055200060C06060F070000000000000000000003B
:105530000000000000001F4030C06040604060007C
:1055400070003C001F0007C001C000E040604060E8
:10555000606030C00F80000000000000000000000C
:105560000000000000007FE0462086108610060044
:1055700006000600060006000600060006000600FB
:10558000060006001F800000000000000000000070
:1055900000000000000078E03040304030403040F3
:1055A000304030403040304030403040304030407B
:1055B000304018800F0000000000000000000000D4
:1055C000000000000000F0E060402080208030807B
:1055D000308011001100190019000A000A000E00A5
:1055E0000C000400040000000000000000000000A7
:1055F000000000000000EF70462042206220622080
:10560000264026402740274039403980198019809C
:1056100011801100110000000000000000000000D7
:1056200000000000000079E0308010801880090040
:105630000D0006000400060006000B0009001180A2
:10564000108020C071E00000000000000000000099
:10565000000000000000F0F060202040304010808A
:1056600018801D000D000E00060006000600060052
:10567000060006001F80000000000000000000007F
:105680000000000000003FE0304060C0408001802A
:1056900001000200020004000400080018001020AD
:1056A000302020407FC0000000000000000000000B
:1056B00007C0040004000400040004000400040007
:1056C00004000400040004000400040004000400BA
:1056D000040004000400040007C0000000000000F3
:1056E000000000002000200010001000080008004A
:1056F0000800040004000200020003000100010091
:1057000000800080004000400040002000000000B9
:105710003E0002000200020002000200020002003D
:105720000200020002000200020002000200020069
:1057300002000200020002003E000000000006001D
:1057400009001080000000000000000000000000C0
:105750000000000000000000000000000000000049
:105760000000000000000000000000000000000039
:105770000000000000000000000000000000000029
:105780000000000000000000000000000000000019
:1057900000000000000000000000FFF0000000001A
:1057A00018000600000000000000000000000000DB
:1057B00000000000000000000000000000000000E9
:1057C00000000000000000000000000000000000D9
:1057D00000000000000000000000000000000000C9
:1057E0000F8030C030C000C007C038C070C060C07B
:1057F00060C071D03E70000000000000000000009A
:105800000000000010007000300030003000300058
:1058100033803CC038603060306030603060306071
:10582000304038C027800000000000000000000069
:105830000000000000000000000000000000000068
:105840000F00318031806180600060006000604046
:10585000304030800F000000000000000000000019
:1058600000000000004003C000C000C000C000C035
:105870001EC031C030C060C060C060C060C060C0C9
:1058800020C031E01E800000000000000000000089
:105890000000000000000000000000000000000008
:1058A000078018C01040306030603FE030003000AA
:1058B00018201840078000000000000000000000D1
:1058C00000000000000003C006600C600C000C002B
:1058D0007F800C000C000C000C000C000C000C0075
:1058E0000C000C003F8000000000000000000000E1
:1058F00000000000000000000000000000000000A8
:105900000FE01B6031803180318019801F00300032
:105910003F0033C060C060C071C01F0000000000C5
:105920000000000010007000300030003000300037
:10593000378038C030C030C030C030C030C030C018
:1059400030C030C079E0000000000000000000001E
:105950000000000000000600060000000000020039
:105960003E000600060006000600060006000600CF
:10597000060006003FC0000000000000000000001C
:105980000000000000000380038000000000008091
:105990000F800180018001800180018001800180F1
:1059A000018001800180018033003E000000000082
:1059B00000000000100070003000300030003000A7
:1059C00031C031003100320036003A003100318000
:1059D000308030C079E000000000000000000000CE
:1059E0000000000002003E0006000600060006005F
:1059F0000600060006000600060006000600060077
:105A0000060006003FC0000000000000000000008B
:105A10000000000000000000000000000000000086
:105A2000ECE077606660666066606660666066602F
:105A300066606660FFF000000000000000000000EB
:105A40000000000000000000000000000000000056
:105A5000778038C030C030C030C030C030C030C0B7
:105A600030C030C079E000000000000000000000FD
:105A70000000000000000000000000000000000026
:105A80000F00198030C060606060606060606060BE
:105A900030C030C00F000000000000000000000017
:105AA00000000000000000000000000000000000F6
:105AB000778038C030603060306030603060306097
:105AC00030C038C03780300030007C00000000005B
:105AD00000000000000000000000000000000000C6
